:100000000C9401030C94B90E0C94920E0C942903D9
:100010000C9429030C9429030C9429030C942903B0
:100020000C9429030C9429030C9429030C942903A0
:100030000C9429030C9429030C9429030C94290390
:100040000C94480E0C9429030C94A60C0C94800C70
:100050000C9429030C9429030C9429030C94290370
:100060000C9429030C9429034E414E494E4954598E
:10007000494E46CDCCCC3D0AD7233C17B7D1387773
:10008000CC2B329595E6241FB14F0A000020410089
:1000900000C84200401C4620BCBE4CCA1B0E5AAED3
:1000A000C59D7400000000003E5B4F5B3E3E6B4F01
:1000B0006B3E1C3E7C3E1C183C7E3C181C577D57FA
:1000C0001C1C5E7F5E1C00183C1800FFE7C3E7FFA6
:1000D0000018241800FFE7DBE7FF30483A060E2639
:1000E00029792926407F050507407F05253F5A3C91
:1000F000E73C5A7F3E1C1C08081C1C3E7F14227FD4
:1001000022145F5F005F5F06097F017F00668995AB
:100110006A606060606094A2FFA29408047E040894
:1001200010207E201008082A1C08081C2A08081E17
:10013000101010100C1E0C1E0C30383E3830060EFD
:100140003E0E06000000000000005F0000000700F7
:100150000700147F147F14242A7F2A1223130864B3
:100160006236495620500008070300001C22410057
:100170000041221C002A1C7F1C2A08083E08080097
:100180008070300008080808080000606000201037
:100190000804023E5149453E00427F4000724949F1
:1001A00049462141494D331814127F1027454545D2
:1001B000393C4A49493141211109073649494936F3
:1001C000464949291E000014000000403400000088
:1001D00008142241141414141400412214080201BA
:1001E0005909063E415D594E7C1211127C7F4949E6
:1001F00049363E414141227F4141413E7F49494983
:10020000417F090909013E414151737F0808087F78
:1002100000417F41002040413F017F081422417F7F
:10022000404040407F021C027F7F0408107F3E4117
:1002300041413E7F090909063E4151215E7F09196E
:100240002946264949493203017F01033F40404086
:100250003F1F2040201F3F4038403F631408146375
:1002600003047804036159494D43007F4141410231
:1002700004081020004141417F0402010204404073
:10028000404040000307080020545478407F284431
:1002900044383844444428384444287F385454541B
:1002A0001800087E090218A4A49C787F080404782A
:1002B00000447D40002040403D007F102844000065
:1002C000417F40007C047804787C0804047838443A
:1002D000444438FC1824241818242418FC7C0804EE
:1002E0000408485454542404043F44243C4040200F
:1002F0007C1C2040201C3C4030403C4428102844BA
:100300004C9090907C4464544C440008364100006A
:1003100000770000004136080002010204023C267A
:1003200023263C1EA1A161123A4040207A38545441
:1003300055592155557941225454784221555478C4
:100340004020545579400C1E52721239555555595A
:10035000395454545939555454580000457C41007F
:1003600002457D420001457C407D1211127DF0283E
:100370002528F07C545545002054547C547C0A09AF
:100380007F4932494949323A4444443A324A48481A
:10039000303A4141217A3A42402078009DA0A07D28
:1003A0003D4242423D3D4040403D3C24FF242448E4
:1003B0007E4943662B2FFC2F2BFF0929F620C0888E
:1003C0007E090320545479410000447D413048485F
:1003D0004A32384040227A007A0A0A727D0D193179
:1003E0007D2629292F28262929292630484D4020D5
:1003F000380808080808080808382F10C8ACBA2FB1
:10040000102834FA00007B000008142A1422221459
:100410002A14085500550055AA55AA55AAFF55FF9C
:1004200055FF000000FF00101010FF00141414FF0F
:10043000001010FF00FF1010F010F0141414FC0056
:100440001414F700FF0000FF00FF1414F404FC1460
:100450001417101F10101F101F1414141F00101059
:1004600010F0000000001F101010101F10101010CE
:10047000F010000000FF101010101010101010FFEE
:1004800010000000FF140000FF00FF00001F101705
:100490000000FC04F414141710171414F404F400EE
:1004A00000FF00F714141414141414F700F71414B4
:1004B00014171410101F101F141414F4141010F03B
:1004C00010F000001F101F0000001F14000000FCAF
:1004D000140000F010F01010FF10FF141414FF149B
:1004E0001010101F00000000F010FFFFFFFFFFF0D2
:1004F000F0F0F0F0FFFFFF0000000000FFFF0F0F23
:100500000F0F0F3844443844FC4A4A4A347E0202F2
:100510000606027E027E0263554941633844443C2C
:1005200004407E201E2006027E020299A5E7A599BE
:100530001C2A492A1C4C7201724C304A4D4D3030F5
:1005400048784830BC625A463D3E494949007E01E0
:1005500001017E2A2A2A2A2A44445F444440514AFF
:10056000444040444A51400000FF0103E080FF0046
:100570000008086B6B083612362436060F090F0682
:10058000000018180000001010003040FF010100AA
:100590001F01011E00191D1712003C3C3C3C0000CD
:1005A00000000000000000230026002900000000D9
:1005B0000800020100000304070000000000000022
:1005C0000000000000240027002A00010204081097
:1005D00020408001020408102001020408102000BD
:1005E000000000250028002B000404040404040477
:1005F00004020202020202030303030303005A1669
:10060000381111241FBECFEFD8E0DEBFCDBF24E0EC
:10061000AAE6B3E001C01D92A03BB207E1F713E0E8
:10062000A0E0B1E0E4E7FBE302C005900D92AA363A
:10063000B107D9F712E0C0E0D3E004C02197FE0172
:100640000E948D1BCF3FD107C9F70E9448110C941F
:10065000AD1D0C9400000895CF92DF92EF92FF92AF
:100660000F931F93CF93DF936C017A018B01C0E04E
:10067000D0E0CE15DF0589F0D8016D918D01D6014E
:10068000ED91FC910190F081E02DC6010995892B37
:1006900011F47E0102C02196ECCFC701DF91CF910A
:1006A0001F910F91FF90EF90DF90CF900895FC0184
:1006B000538D448D252F30E0842F90E0821B930BC7
:1006C000541710F0CF96089501970895FC01918D6D
:1006D000828D981761F0828DDF01A80FB11D5D96A4
:1006E0008C91928D9F5F9F73928F90E008958FEF12
:1006F0009FEF0895FC01918D828D981731F0828DC6
:10070000E80FF11D858D90E008958FEF9FEF08951C
:10071000FC01918D228D892F90E0805C9F4F821B80
:1007200091098F739927089584EC93E00E948803C0
:1007300021E0892B09F420E0822F0895FC01848DAB
:10074000DF01A80FB11DA35ABF4F2C91848D90E0FB
:1007500001968F739927848FA689B7892C93A089D6
:10076000B1898C9180648C93938D848D981306C08D
:100770000288F389E02D80818F7D80830895EF9238
:10078000FF920F931F93CF93DF93EC0181E0888F4B
:100790009B8D8C8D981305C0E889F989808185FD32
:1007A00024C0F62E0B8D10E00F5F1F4F0F73112723
:1007B000E02E8C8DE8120CC00FB607FCFACFE8894A
:1007C000F989808185FFF5CFCE010E949E03F1CF8C
:1007D0008B8DFE01E80FF11DE35AFF4FF0820B8F66
:1007E000EA89FB898081806207C0EE89FF89608386
:1007F000E889F98980818064808381E090E0DF91DD
:10080000CF911F910F91FF90EF900895CF93DF93B9
:10081000EC01888D8823C9F0EA89FB89808185FDF8
:1008200005C0A889B9898C9186FD0FC00FB607FC59
:10083000F5CF808185FFF2CFA889B9898C9185FF9A
:10084000EDCFCE010E949E03E7CFDF91CF910895B7
:1008500080E090E0892B29F00E94940381110C9490
:1008600000000895833081F028F4813099F08230BF
:10087000A1F008958730A9F08830B9F08430D1F420
:10088000809180008F7D03C0809180008F7780935E
:100890008000089584B58F7702C084B58F7D84BDB4
:1008A00008958091B0008F7703C08091B0008F7D54
:1008B0008093B00008958E3008F08E50877020919C
:1008C000000190E4299F90011124822B80937C00E9
:1008D00080917A00806480937A0080917A0086FD0E
:1008E000FCCF809178002091790090E0922B0895C0
:1008F0000895FC0177FD68C08085918568177907A8
:100900000CF062C057FD60C0828593854817590777
:100910000CF05AC08589823059F08330B1F08130B3
:10092000D1F48FE290E0861B970BBA01AC0113C0A3
:1009300083E590E0FC01E61BF70BBF018FE290E03E
:10094000FC01E41BF50BAF0106C083E590E0841BBE
:10095000950BAB01BC0164357105B0F54033510511
:1009600098F5CA01E3E095958795EA95E1F7477018
:100970005527232BA1F024E5289FF001299FF00D96
:1009800011246E0F7F1FFB01E35FFE4F81E090E0BB
:1009900001C0880F4A95EAF79081892B14C024E59D
:1009A000289FF001299FF00D11246E0F7F1FFB017E
:1009B000E35FFE4F81E090E001C0880F4A95EAF7BF
:1009C000809590818923808308950895FC01637048
:1009D000658B8481958126813781613039F0633060
:1009E00029F0918780873387228708953187208770
:1009F0009387828708952F923F924F925F926F92D2
:100A00007F928F929F92AF92BF92CF92DF92EF929E
:100A1000FF920F931F93CF93DF93CDB7DEB76C9701
:100A20000FB6F894DEBF0FBECDBF9C8F8B8F5B01DE
:100A30001A011F830E833701C982DC0158964D913C
:100A40005C9159974115510509F0E5C018968D91B3
:100A50009C911997681779070CF0CAC11A968D9165
:100A60009C911B97281639060CF0C2C18C2C912C36
:100A7000FB0136E0C39EE00DF11D1124FB87EA87E0
:100A80001E161F060CF0B4C1C40133E0880F991F75
:100A90003A95E1F79D878C87820D931D18161906EC
:100AA0000CF0A6C157968C91811103C0203B08F031
:100AB0002F5FAB8DBC8DED91FC9111970284F38576
:100AC000E02DCD012A8F09952A8DB5E02B9F90014D
:100AD0001124F5013596FF87EE87BB82AA82250196
:100AE000A9014A195B09598B488BC10108969B8B58
:100AF0008A8BE889F989E40DF51DED55FF4F949136
:100B0000988761013D822C82A885A0FF13C0AB8D20
:100B1000BC8DED91FC91B981B13031F40484F5853F
:100B2000E02D2E813F8116C00684F785E02DEE80F2
:100B3000FF801AC0EE81FF816E167F06F1F0AB8D4B
:100B4000BC8DED91FC91B981B13051F40484F585EF
:100B5000E02D9301A601B2018B8D9C8D09950DC0EE
:100B60000684F785E02D7301840194014C815D8139
:100B70006A817B818B8D9C8D0995E885E695E88758
:100B8000FFEFCF1ADF0A2C813D81280D391D3D83EF
:100B90002C834A895B89C416D50609F0B5CF5FEF6F
:100BA000451A550A8A819B81880D991D9B838A83EA
:100BB000AE85BF854A165B0609F09BCFEE81FF81AB
:100BC0006E167F0609F4F2C0EB8DFC8DA081B18119
:100BD000F981F13079F4B5016B5F7F4F5096ED915B
:100BE000FC915197830128E030E0A1018B8D9C8D11
:100BF0000995DCC06A857B85681979091E96ED9197
:100C0000FC911F9773010C851D859401A1018B8DAB
:100C10009C8D0995CBC0FA013496949132976591D9
:100C20007491291BCB01B7E02B9F800D911D1124DE
:100C3000FA01259134913B8B2A8BFC01459154910B
:100C40005B834A83FC013296C490319654915E874F
:100C5000329614913196D4908981823058F0612E69
:100C6000012E000C7708AD2D0D2C000CBB0BB987A5
:100C7000A88704C019861886612C712CAB8DBC8D99
:100C8000ED91FC9111970284F385E02DCD0109953A
:100C9000B9818B2E912C689CC001699C900D789C29
:100CA000900D1124FC01EA0DFB1DFD87EC871C82D1
:100CB000712C612CE12F110FFF0B95012E0F3F1F9F
:100CC0003B872A87AC0CB11CA5014E0F5F1F5F8BC1
:100CD0004E8BC1018D0D911DD7FC9A95998F888FF0
:100CE0004E85641608F062C0862D90E048855985CF
:100CF000480F591F489D9001499D300D589D300D5A
:100D00001124D901A20DB31DB98BA88BAA84BB8471
:100D10004C845D84DC80BA85DB1AE88DF98DE80FA0
:100D2000F91FFD8BEC8B8D2D8A0D2E893F89A21624
:100D3000B306B9F1877061F48A819B810196EA89D3
:100D4000FB89AA81BB81EA0FFB1F74909B838A8376
:100D500077FE20C0AB8DBC8DED91FC91B981B13097
:100D600061F40484F585E02D2E813F814C895D89F5
:100D7000B5018B8D9C8D09950DC00684F785E02DFE
:100D8000EE80FF808401940148895989B2018B8DDE
:100D90009C8D0995770CEFEFAE1ABE0A480C591CD2
:100DA000C2CF3C813C0D3C8363949ACFAB8DBC8D0C
:100DB000ED91FC9111970688F789E02DCD016C9695
:100DC0000FB6F894DEBF0FBECDBFDF91CF911F915C
:100DD0000F91FF90EF90DF90CF90BF90AF909F90DA
:100DE0008F907F906F905F904F903F902F900994DD
:100DF0006C960FB6F894DEBF0FBECDBFDF91CF91DA
:100E00001F910F91FF90EF90DF90CF90BF90AF9028
:100E10009F908F907F906F905F904F903F902F901A
:100E20000895AF92BF92CF92EF92FF920F931F93CC
:100E3000CF93DF93EC01262F888D998D009709F0D1
:100E400040C06A3059F41D861C862C898E859F858A
:100E500038E0239F800D911D112441C06D3009F4AD
:100E6000AAC08E898823C1F03C898C859D8546E087
:100E7000349F800D911D11244885598548175907C5
:100E80005CF41D861C868E859F8548E0349F800D0E
:100E9000911D11249F878E87EA88FB88088919890C
:100EA0004E855F856C857D85CC88CE010E94FB04D4
:100EB0002C898C859D8536E0239F800D911D112402
:100EC00042C06A3079F41D861C862C89FC01369656
:100ED000E4918E859F852E9F800D911D11249F8703
:100EE0008E8769C06D3009F466C0FC013496349178
:100EF000631708F460C03196E491E61708F45BC00C
:100F0000FC013296A590B490462F50E0431B510946
:100F100037E0349FB001359F700D1124A60EB71E27
:100F2000F501329634913196E491332311F0E111B9
:100F30000DC0F5013496E4912C898C859D85E29F46
:100F4000800D911D11249D878C8735C0F501359644
:100F500044915E89552311F16C89E32FF0E0E40F91
:100F6000F11D47FDFA956E9FD0016F9FB00D1124C2
:100F70004C855D854A0F5B1FE885F985E417F50709
:100F80006CF41D861C86FC013696E4918E859F8547
:100F90006E9F800D911D11249F878E87EA88FB88A4
:100FA000088919894E855F856C857D85CC88CE0141
:100FB0000E94FB04BECF81E090E0DF91CF911F91B2
:100FC0000F91FF90EF90CF90BF90AF9008956F92E8
:100FD0007F928F929F92AF92BF92CF92DF92EF92C9
:100FE000FF920F931F93CF93DF93EC014B015A01B4
:100FF00069013801E881F9810284F385E02D0995C2
:10100000E881F9810288F389E02D87019601A50125
:10101000B401CE010995E881F981A501460D571D5E
:10102000415051090288F389E02D9601B401CE01A7
:101030000995E881F9810088F189E02D9301A501E6
:10104000B401CE010995E881F981C80CD91CB6011B
:10105000615071090088F189E02D9301A501CE014D
:101060000995E881F9810688F789E02DCE01DF91A5
:10107000CF911F910F91FF90EF90DF90CF90BF9095
:10108000AF909F908F907F906F900994CF92DF9256
:10109000EF92FF920F931F93CF93DF9300D000D076
:1010A00000D0CDB7DEB76C01DC01ED91FC91621789
:1010B000730789F4041715072CF4942F852FA801C2
:1010C000092F182F041B150B98012F5F3F4F048C1D
:1010D000F58DE02D12C04017510709F52617370787
:1010E0002CF4962F872FB901292F382F261B370B69
:1010F0002F5F3F4F068CF78DE02D8701C6010995C4
:1011000026960FB6F894DEBF0FBECDBFDF91CF910C
:101110001F910F91FF90EF90DF90CF900895028480
:10112000F385E02D2D833E834B835C8369837A8333
:101130000995D601ED91FC910488F589E02D2D816A
:101140003E814B815C8169817A81C6010995D60116
:10115000ED91FC910688F789E02DC60126960FB621
:10116000F894DEBF0FBECDBFDF91CF911F910F91DD
:10117000FF90EF90DF90CF900994EF92FF920F9342
:101180001F93DC01ED91FC9111971A960D911C9122
:101190001B9718962D913C91199700A0F1A1E02D75
:1011A0007B0140E050E060E070E009951F910F91F5
:1011B000FF90EF9008954F925F926F927F928F927F
:1011C0009F92AF92BF92CF92DF92EF92FF920F93D6
:1011D0001F93CF93DF9300D0CDB7DEB76C015A01D8
:1011E00039014801DC01ED91FC910284F385E02D89
:1011F00069837A8309956981462E7A81572E640C1A
:10120000751CD601ED91FC91461457046CF40088CE
:10121000F189E02D87019401A501B201C60109956C
:10122000BFEF4B1A5B0AEDCF0688F789E02DC601A8
:101230000F900F90DF91CF911F910F91FF90EF9042
:10124000DF90CF90BF90AF909F908F907F906F90E6
:101250005F904F900994AF92BF92CF92DF92EF923E
:10126000FF920F931F93CF93DF9300D000D0CDB7A1
:10127000DEB75C016901DC01ED91FC910284F3852C
:10128000E02D4B835C8369837A830995D501ED91C9
:10129000FC9169817A819B012C0D3D1D2150310902
:1012A0000488F589E02D78014B815C818A01C501B4
:1012B0000995D501ED91FC910688F789E02DC501CE
:1012C0000F900F900F900F90DF91CF911F910F9182
:1012D000FF90EF90DF90CF90BF90AF900994AF92C6
:1012E000BF92CF92DF92EF92FF920F931F93CF9313
:1012F000DF9300D000D0CDB7DEB75C016901DC011F
:10130000ED91FC910284F385E02D4B835C8369832E
:101310007A830995D501ED91FC914B815C81C40ED6
:10132000D51EB1E0CB1AD1080488F589E02D7801EB
:10133000860169817A819B01C5010995D501ED91ED
:10134000FC910688F789E02DC5010F900F900F9052
:101350000F90DF91CF911F910F91FF90EF90DF9051
:10136000CF90BF90AF9009940895EF92FF920F93A2
:101370001F93DC01ED91FC9100A0F1A1E02D0995F6
:101380001F910F91FF90EF9008950F931F93DC0131
:10139000ED91FC91068CF78DE02D09951F910F9131
:1013A00008950F931F93DC01ED91FC91048CF58D52
:1013B000E02D09951F910F910895DC01ED91FC91AD
:1013C0000084F185E02D099408952F923F924F9269
:1013D0005F926F927F928F929F92AF92BF92CF92C5
:1013E000DF92EF92FF920F931F93CF93DF9300D082
:1013F0001F92CDB7DEB74C017B836A836A01590126
:1014000017019801241B350B37FF03C03195219537
:101410003109C5014A815B81841B950B97FF03C08D
:1014200091958195910951E059838217930714F0A2
:1014300019820BC09A2D8B2D5801092F182F9A81D4
:101440008B81DB82CA82C92ED82E8A819B81A81605
:10145000B9065CF49C2D8D2D6801092F182F9A81F7
:101460008B81BB82AA82A92EB82E2501AA81BB81BD
:101470004A1A5B0A38016C187D0877FE03C0719424
:1014800061947108720157FE03C0BFEFEB1AFB0AAB
:10149000F594E794C016D1061CF00FEF1FEF1FC0A4
:1014A00001E010E01CC0D401ED91FC91B9810484ED
:1014B000F585E02D9101BB23C1F04A815B81B60126
:1014C000C4010995E618F708F7FE04C0C00ED11E46
:1014D000E40CF51CEA81FB813196FB83EA834A81A7
:1014E0005B81A416B506FCF604C0A6016A817B8167
:1014F000E7CF0F900F900F90DF91CF911F910F9139
:10150000FF90EF90DF90CF90BF90AF909F908F9023
:101510007F906F905F904F903F902F900895089527
:1015200080E090E008950F931F93CF93DF93EC0139
:1015300088819981009729F02A813B8126173707F6
:1015400088F48B016F5F7F4F0E94C01C009761F091
:10155000998388831B830A832C813D81232B11F47B
:10156000FC01108281E001C080E0DF91CF911F91EA
:101570000F910895CF93DF93EC01888199810097B3
:1015800011F00E94281C198218821D821C821B8265
:101590001A82DF91CF910895FC01808191810C9492
:1015A000281CEF92FF920F931F93CF93DF93CDB739
:1015B000DEB7A2970FB6F894DEBF0FBECDBF8C0189
:1015C000CB01BA01F80111821082138212821582B6
:1015D000148230E0AE014F5F5F4F7A010E94EB163C
:1015E000F70101900020E9F73197AF014E195F092B
:1015F000B701C8010E940610A2960FB6F894DEBF8C
:101600000FBECDBFDF91CF911F910F91FF90EF9053
:101610000895FB01DC0111961C921E9213961C92F8
:101620001E92129715961C921E9214978617970772
:1016300049F0608171816115710521F04481558106
:101640000C9406100895FC011182108213821282FC
:10165000158214826115710551F0FB010190002083
:10166000E9F73197AF01461B570B0C94061008950C
:101670006115710579F0FB0101900020E9F73197C0
:10168000AF01461B570BDC01ED91FC910280F38109
:10169000E02D099480E090E008954F925F926F9260
:1016A0007F92EF92FF920F931F93CF93DF93CDB76B
:1016B000DEB7A1970FB6F894DEBF0FBECDBF7C0199
:1016C000FA01CB0119A2223008F42AE08E010F5D45
:1016D0001F4F422E512C612C712CBF01A30192018E
:1016E0000E944C1BF901CA01015011096A3014F41F
:1016F000605D01C0695CD8016C93232B242B252BE2
:1017000061F7B801C7010E94380BA1960FB6F89493
:10171000DEBF0FBECDBFDF91CF911F910F91FF9024
:10172000EF907F906F905F904F9008954F925F92EF
:101730006F927F928F929F92AF92BF92CF92DF92E1
:10174000EF92FF92CF93DF93EC016A017B01B22EFF
:101750009A01AB01C701B6010E94471B882319F00B
:1017600069E473E027C026013701E89477F82FEF8A
:101770003FEF4FE75FE7C301B2010E94471B8111B2
:101780000DC02FEF3FEF4FE75FE7C301B2010E94AB
:10179000B51818161CF46DE473E00CC02FEF3FEF82
:1017A0004FE75FE4C701B6010E94421B18169CF484
:1017B00061E573E0CE01DF91CF91FF90EF90DF9074
:1017C000CF90BF90AF909F908F907F906F905F90E1
:1017D0004F900C94380B2FEF3FEF4FE75FECC701B2
:1017E000B6010E94B51887FDE3CF20E030E0A901E3
:1017F000C701B6010E94B51887FF0EC0E881F981C4
:101800000190F081E02D6DE2CE0109954C01F7FACF
:10181000F094F7F8F09402C0812C912CA12C60E098
:1018200070E080E09FE3AB1441F020E030E040E264
:1018300051E40E949A1AA394F6CF9B01AC01C70110
:10184000B6010E942E1A2B013C010E94131B6B0152
:101850007C010E94BA189B01AC01C301B2010E9435
:101860002D1A2B013C012AE0B701A601CE010E94EE
:101870004D0B7C01E80CF91CBB2051F0E881F9818B
:101880000190F081E02D6EE2CE010995E80EF91E7F
:10189000DB2CDD2029F120E030E040E251E4C301FF
:1018A000B2010E941B192B013C010E94131B4B012A
:1018B000A12CB12C2AE0B501A401CE010E944D0B50
:1018C000E80EF91EC501B4010E94BA189B01AC01D3
:1018D000C301B2010E942D1A2B013C01DA94D9CF29
:1018E000C701DF91CF91FF90EF90DF90CF90BF9035
:1018F000AF909F908F907F906F905F904F900895E2
:101900001F920F920FB60F9211242F933F934F9374
:101910005F936F937F938F939F93AF93BF93EF9357
:10192000FF9384EC93E00E949E03FF91EF91BF919F
:10193000AF919F918F917F916F915F914F913F9167
:101940002F910F900FBE0F901F9018951F920F921E
:101950000FB60F9211242F938F939F93EF93FF93C2
:10196000E091D403F091D5038081E091DA03F09106
:10197000DB0382FD12C090818091DD038F5F8F7346
:101980002091DE03821751F0E091DD03F0E0EC538B
:10199000FC4F958F8093DD0301C08081FF91EF9113
:1019A0009F918F912F910F900FBE0F901F901895C0
:1019B000CF93DF93282F30E0F901E355FA4F84915C
:1019C000F901E553FA4FD491F901E751FA4FC49167
:1019D000CC2391F081110E943204EC2FF0E0EE0F45
:1019E000FF1FED55FA4FA591B491EC91ED2381E0E5
:1019F00090E021F480E002C080E090E0DF91CF91A0
:101A000008950F931F93CF93DF9382E00E94D80C29
:101A1000EC0190936F0380936E0380917903909112
:101A20007A03C817D90779F183E10E94D80C409155
:101A3000090150910A0160910B0170910C01009114
:101A400005011091060120910701309108018C17C2
:101A50009D0739F0CB01BA01600F711F821F931FE0
:101A600006C0CB01BA01601B710B820B930B609314
:101A7000090170930A0180930B0190930C010E945D
:101A8000BC180E949710D0937A03C0937903DF911A
:101A9000CF911F910F9108951F93CF93DF93282F1C
:101AA00030E0F901E355FA4F8491F901E553FA4F1B
:101AB000D491F901E751FA4FC491CC23C9F0162F04
:101AC00081110E943204EC2FF0E0EE0FFF1FE15273
:101AD000FA4FA591B4918FB7F894111105C09C915C
:101AE000ED2FE095E92302C0EC91ED2BEC938FBF35
:101AF000DF91CF911F910895CF93DF9390E0FC0188
:101B0000E553FA4F2491FC01E751FA4F8491882361
:101B100061F190E0880F991FFC01EF53FA4FC591D6
:101B2000D491FC01E152FA4FA591B491611109C021
:101B30009FB7F8948881209582238883EC912E2387
:101B40000BC0623061F49FB7F8943881822F809582
:101B500083238883EC912E2B2C939FBF06C08FB7D5
:101B6000F894E8812E2B28838FBFDF91CF910895C1
:101B70003FB7F8948091750390917603A091770315
:101B8000B091780326B5A89B05C02F3F19F00196A8
:101B9000A11DB11D3FBFBA2FA92F982F8827820FF3
:101BA000911DA11DB11DBC01CD0142E0660F771F43
:101BB000881F991F4A95D1F708950F931F9383E0CB
:101BC0000E94D80C019709F460C0E99888E794E076
:101BD00090930401809303010E94B80D00916A0361
:101BE00010916B0320916C0330916D03DC01CB01EC
:101BF000801B910BA20BB30B8032914AA740B10519
:101C0000BCF183E00E94D80C892B41F5809105013D
:101C100090910601A0910701B091080181309105D2
:101C2000A105B10529F488EE93E0A0E0B0E00EC074
:101C3000883E9340A105B10529F480E492E4AFE029
:101C4000B0E004C081E090E0A0E0B0E08093050146
:101C500090930601A0930701B09308010E94B80D6C
:101C600060936A0370936B0380936C0390936D038E
:101C70008DED9DE0909304018093030180916900B4
:101C8000837F886080936900E99A1F910F9108957E
:101C90001F920F920FB60F9211242F933F938F93A1
:101CA0009F93AF93BF9380917B0390917C03A0910E
:101CB0007D03B0917E033091740323E0230F2D3711
:101CC00020F40196A11DB11D05C026E8230F029640
:101CD000A11DB11D2093740380937B0390937C031B
:101CE000A0937D03B0937E0380917503909176035A
:101CF000A0917703B09178030196A11DB11D809347
:101D0000750390937603A0937703B0937803BF9104
:101D1000AF919F918F913F912F910F900FBE0F9098
:101D20001F9018951F920F920FB60F9211242F93A8
:101D30003F934F935F936F937F938F939F93AF9353
:101D4000BF93EF93FF93E0910301F0910401099594
:101D5000FF91EF91BF91AF919F918F917F916F9183
:101D60005F914F913F912F910F900FBE0F901F9059
:101D700018951F920F920FB60F9211242F933F9335
:101D80004F935F936F937F938F939F93AF93BF9383
:101D9000EF93FF93E0910101F09102010995FF910A
:101DA000EF91BF91AF919F918F917F916F915F91D3
:101DB0004F913F912F910F900FBE0F901F9018954C
:101DC000CF92DF92EF92FF920F931F93CF93DF9307
:101DD00010927F031092800310928103109282036D
:101DE0000CE010E08EE00E945B047C019093730392
:101DF000809372038FE00E945B04EC019093710367
:101E000080937003B701FF0C880B990B0E94BC18DC
:101E10006B017C01BE01DD0F880B990B0E94BC1881
:101E20009B01AC01C701B6010E942E1A20E030E0F0
:101E300040E05FE30E941B1920E030EC4FE754E4E0
:101E40000E949A1A2DEC3CEC4CE85FE30E941B19AF
:101E500020917F0330918003409181035091820350
:101E60000E942E1A60937F037093800380938103F6
:101E7000909382030150110909F0B4CF20E030E0C3
:101E800040E451E40E949A1A60937F0370938003A8
:101E90008093810390938203DF91CF911F910F91E3
:101EA000FF90EF90DF90CF900895EF92FF920F9305
:101EB0001F93CF93DF9300D000D000D0CDB7DEB713
:101EC0008C017B01FB01848195818130910519F49E
:101ED00065E573E004C00297A1F466E573E0CE0106
:101EE00001960E94230BB701CE0101960E949B0F21
:101EF000BC01C8010E94090BCE0101960E94CC0AC8
:101F00000AC0F80111821082138212821582148293
:101F1000C8010E94CD0FC80126960FB6F894DEBF07
:101F20000FBECDBFDF91CF911F910F91FF90EF902A
:101F300008950E948A1DEF92FF920F931F93CF93F3
:101F4000DF93EC01FB0184819581E080F1800C81BD
:101F50001D81E114F104B1F00097B9F0080F191FC9
:101F6000B801CE010E94930A882361F0288139814B
:101F70008C819D81B701820F931F0E94981D1D8344
:101F80000C8303C0CE010E94BA0ACE01DF91CF912B
:101F90001F910F91FF90EF9008950F931F93CF9390
:101FA000DF938C01EB01FC01808191810097B1F0FE
:101FB000688179816115710579F0428153812C81A5
:101FC0003D814217530740F00E94981D8C819D81EE
:101FD000F8019583848313C00E94281C888199810D
:101FE000F801918380838A819B81938382838C8192
:101FF0009D8195838483198218821B821A821D8297
:102000001C82DF91CF911F910F910895EF92FF9263
:102010000F931F93CF93DF93EC017B018A01BA01E9
:102020000E94930A811104C0CE010E94BA0A07C01F
:102030001D830C83B701888199810E94981DCE0170
:10204000DF91CF911F910F91FF90EF9008959091A4
:102050009F049F3F21F49091A0049F3F59F128E0F5
:1020600030E040E8E091A604F091A70450819091FF
:10207000A904909595239083E091A404F091A50480
:102080009091A804542F582319F05081952B03C028
:102090005081909595239083E091A604F091A70438
:1020A00050819091A904952B908346952150310938
:1020B000C9F608958EBD00000DB407FEFDCF8EB5A4
:1020C0000895EF92FF920F931F93CF93DF93E82E23
:1020D000F62EC0E0D0E0042F10E098010C2E02C0D4
:1020E000359527950A94E2F7B901617077278E2D0F
:1020F0000E944C0D61E08F2D0E944C0D60E08F2DF1
:102100000E944C0D2196C830D10539F7DF91CF914F
:102110001F910F91FF90EF900895CF93C82F61E02A
:102120000E944C0D60E08C2FCF910C944C0DCF92FF
:10213000DF92EF92FF92CF93DF9320E030E040E810
:102140005FE40E941B192091810430918204409128
:102150008304509184040E949A1A0E940C1B6B0104
:102160007C01C4E0D0E04C2D6091790480917B0427
:102170000E946110CD2CDE2CEF2CFF24E7FCFA949A
:10218000219789F740E06091790480917B040E9457
:10219000611080917D0490917E04DF91CF91FF903A
:1021A000EF90DF90CF900C948D10CF93C82F60E00C
:1021B0008091A1040E944C0D8091A30418161CF478
:1021C00060E00E944C0D8C2F0E9427108091A30488
:1021D000181624F461E0CF910C944C0DCF91089522
:1021E000EF92FF920F931F93CF938DE0E82E81E043
:1021F000F82EC0E08C2F80640E94D51080E80E94E9
:10220000D51061E08091A1040E944C0D8091A3043F
:1022100018161CF460E00E944C0D00E010E0F7017D
:10222000E00FF11F80810E9427100F5F1F4F0435C0
:102230001105A9F78091A30418161CF461E00E940F
:102240004C0DCF5F84E5E80EF11CC63099F680E4B2
:10225000CF911F910F91FF90EF900C94D510FC013E
:10226000448155816081718185E894E00C942C0350
:1022700081E694E00E94CC0A87E694E00E94CC0AB2
:102280008DE694E00E94CC0A83E794E00C94CC0A9B
:10229000CF93DF93CDB7DEB761970FB6F894DEBF6B
:1022A0000FBECDBF789484B5826084BD84B5816053
:1022B00084BD85B5826085BD85B5816085BD809111
:1022C0006E00816080936E00109281008091810089
:1022D0008260809381008091810081608093810081
:1022E000809180008160809380008091B100846043
:1022F0008093B1008091B00081608093B0008091A4
:102300007A00846080937A0080917A008260809362
:102310007A0080917A00816080937A0080917A00BF
:10232000806880937A001092C100E091D403F0910C
:10233000D50382E08083E091D003F091D103108235
:10234000E091D203F091D30380E180831092DC030B
:10235000E091D803F091D90386E08083E091D60321
:10236000F091D703808180618083E091D603F09162
:10237000D703808188608083E091D603F091D703F2
:10238000808180688083E091D603F091D7038081BB
:102390008F7D808384E690E0A0E0B0E08093C80366
:1023A0009093C903A093CA03B093CB0383E08093B7
:1023B000000161E08CE00E947C0D61E08BE00E94F6
:1023C0007C0D60E083E10E947C0D60E082E00E9471
:1023D0007C0D62E083E00E947C0D82E00E94D80CBC
:1023E00090937A038093790361E081E10E947C0DF0
:1023F000EEEBF5E0E491E33019F150F4E130D1F087
:10240000E230E1F584B5806284BD86E988BD3AC0DA
:10241000E73011F1E83049F1E43081F58091800036
:1024200080628093800086E990E090938B00809397
:102430008A0028C084B5806884BD86E987BD22C033
:102440008091800080688093800086E990E090937E
:1024500089008093880016C08091B00080688093C6
:10246000B00086E98093B3000DC08091B000806217
:102470008093B00086E98093B40004C061E081E1FC
:102480000E944C0D80919F048F3F09F0D6C390911C
:10249000A0049F3F09F0D1C31FB7F8948091830334
:1024A000811127C0E3EFF5E08491E5EDF5E094912B
:1024B000E82FF0E0EE0FFF1FEF53FA4FA591B49114
:1024C000EC91E92321F461E08AE00E944C0D61E087
:1024D0008AE00E947C0D8CB580618CBD8CB58064D7
:1024E0008CBD61E08DE00E947C0D61E08BE00E947C
:1024F0007C0D809183038F5F809383031FBF8CB516
:102500008C7F8CBD8DB58E7F8DBD8CB5837F8CBD52
:102510008CB58F7D8CBD61E08091A1040E947C0D03
:102520008091A20418161CF461E00E947C0D809139
:10253000A30418161CF461E00E947C0D8091A20493
:1025400018167CF560E00E944C0D0E94B80D4B01FE
:102550005C01E4EFCE2EDD24D394E12CF12C0E941B
:10256000B80DDC01CB0188199909AA09BB09883E7D
:102570009340A105B10558F021E0C21AD108E10845
:10258000F10838EE830E33E0931EA11CB11CC11478
:10259000D104E104F10419F761E08091A2040E94E2
:1025A0004C0D81E20E94D51084E10E94D51088EA8A
:1025B0000E94D51080E20E94D5108CE00E94D510B8
:1025C0000E94F01081E20E94D5108CEB0E94D51081
:1025D00080E20E94D51088EF91E0EDE0F1E0DF01AC
:1025E0009C011D9221503040E1F71092920410920C
:1025F0009104109294041092930481E080939904C2
:1026000081E090E0909398048093970490939604CF
:102610008093950461E080917D040E947C0D61E0CF
:10262000809179040E947C0D61E080917B040E947E
:102630007C0D61E080917F040E947C0D80917F047D
:10264000909180040E948D108091790490917A0479
:102650000E948D1080917D0490917E040E948D10C7
:1026600060E070E0CB010E94971086EF9AE6AEEE34
:10267000BCE48093810490938204A0938304B0937C
:1026800084046091090170910A0180910B0190917D
:102690000C010E94BC180E94971081E09DE090936D
:1026A000020180930101809169008C7F8160809399
:1026B0006900E89A8DED9DE09093040180930301F9
:1026C00080916900837F886080936900E99A58EE61
:1026D000C52E53E0D52EE12CF12C60E4862E62E469
:1026E000962E6FE0A62EB12C70EB472E77E5572E75
:1026F00073E7672E77E0772E84EC93E00E948803DF
:10270000181619060CF01AC1A4E8B3E0E0E41D9213
:10271000EA95E9F704E813E02FB7F89480917B037A
:1027200090917C03A0917D03B0917E032FBF809395
:10273000CC039093CD03A093CE03B093CF03E0914D
:10274000C403F091C5030284F385E02D84EC93E08B
:10275000099597FD25C08A30910509F047C064E8C6
:1027600073E0CE0101960E94230BBE016F5F7F4F85
:1027700081E694E00E94CD0FCE0101960E94CC0A22
:1027800068E573E0CE0101960E94230B4D815E81C6
:1027900080916504909166048417950780F53FC089
:1027A0002FB7F89480917B0390917C03A0917D03D7
:1027B000B0917E032FBF4091CC035091CD03609127
:1027C000CE037091CF03841B950BA60BB70B4091E2
:1027D000C8035091C9036091CA037091CB03841759
:1027E0009507A607B70708F4AACFB9CFD8018D93EC
:1027F0008D01B3E0043C1B0709F08ECFB0CF809170
:10280000610490916204009751F069817A816115A9
:10281000710529F00E949F1D11E0892B09F010E03D
:10282000CE0101960E94CC0A112309F482C00091C6
:102830006504109166040430110520F4180104E0C9
:1028400010E003C044E0242E312C6FE573E0CE018C
:1028500001960E94230B80916504909166042816CE
:10286000390680F58017910708F48C01E091610426
:10287000F0916204E00FF11F20812D87108260919A
:10288000610470916204620D731D6115710569F038
:10289000FB0101900020E9F73197AF01461B570B70
:1028A000CE0101960E94061004C0CE0101960E943E
:1028B000BA0A8091610490916204FC01E00FF11F5B
:1028C0003D85308389819A81009719F00E94E7162F
:1028D00003C060E070E0CB010E940C1BAB01BC01A7
:1028E0004093090150930A0160930B0170930C010E
:1028F000CE0101964E875F87688B798B0E94CC0A48
:102900004E855F8568897989CB01BA010E94BC1820
:102910000E9497100E94E00EAB01BC0126E084ECFF
:1029200093E00E94960B6DE573E084EC93E00E94C7
:10293000380B84EC93E00E940604DECE88EF91E031
:10294000EDE0F1E0DF019C011D9221503040E1F704
:102950001092920410929104109294041092930495
:102960000E94E00E60937F03709380038093810345
:102970009093820360E673E085E894E00E94380B50
:1029800040917F0350918003609181037091820395
:1029900026E085E894E00E94960B65E673E085E802
:1029A00094E00E94380B6DE573E085E894E00E94A6
:1029B000380B63E070E083E794E00E94930A609133
:1029C000090170910A0180910B0190910C01A701FE
:1029D00096010E946E1BAB01BC012AE0CE0101965C
:1029E0000E94D10ABE016F5F7F4F83E794E00E948F
:1029F000CD0FCE0101960E94CC0A60910901709121
:102A00000A0180910B0190910C01A70196010E948F
:102A10006E1BCA01B901A70196010E946E1BAB0192
:102A2000BC012AE0CE0101960E94D10ABE016F5F6F
:102A30007F4F8DE694E00E94CD0FCE0101960E945B
:102A4000CC0A6091090170910A0180910B0190916B
:102A50000C01A50194010E946E1BCA01B901A501D8
:102A600094010E946E1BAB01BC012AE0CE010196CD
:102A70000E94D10ABE016F5F7F4F87E694E00E94FB
:102A8000CD0FCE0101960E94CC0A80910501909154
:102A90000601A0910701B091080180349244AF4033
:102AA000B10551F4109296041092950481E090E0E3
:102AB000909398048093970487E694E00E942F11E6
:102AC00001E010E01093960400939504109298048E
:102AD0001092970463E673E085E894E00E94380B57
:102AE0008091050190910601A0910701B091080124
:102AF000883E9340A105B10541F4109296041092CE
:102B0000950410939804009397046DE674E0CE0149
:102B100007960E94090BBE01695F7F4FCE010196A7
:102B20000E94550FCE0101960E942F11CE010196F1
:102B30000E94CC0ACE0107960E94CC0A01E010E068
:102B400010939604009395041092980410929704A1
:102B500063E673E085E894E00E94380B80910501FC
:102B600090910601A0910701B09108010197A1057C
:102B7000B10541F4109296041092950410939804B4
:102B80000093970463E774E0CE0107960E94090B57
:102B9000BE01695F7F4FCE0101960E94550FCE01A5
:102BA00001960E942F11CE0101960E94CC0ACE01FF
:102BB00007960E94CC0A81E090E09093960480935F
:102BC0009504109298041092970467E673E085E8E4
:102BD00094E00E94380B6DE573E085E894E00E9474
:102BE000380B0E94F0108091090190910A01A09188
:102BF0000B01B0910C01B7FF08C0109209011092AF
:102C00000A0110920B0110920C0180910901909120
:102C10000A01A0910B01B0910C01813B9745A3479C
:102C2000B74044F04092090150920A0160920B01B2
:102C300070920C010E9428045FCD61E00E947C0D1F
:102C400061E08091A0040E947C0D8091A004082E78
:102C5000000C990BFC01E751FA4FE491F0E0EE0F04
:102C6000FF1FE152FA4F259134913093A70420932E
:102C7000A604FC01E553FA4FE491E093A904809186
:102C80009F04082E000C990BFC01E751FA4FE491C8
:102C9000F0E0EE0FFF1FE152FA4F2591349130938F
:102CA000A5042093A404FC01E553FA4FE491E093BA
:102CB000A80431CCE4ECF3E01382128288EE93E0B6
:102CC000A0E0B0E084839583A683B7838FE093E090
:102CD0009183808385EC90E09587848784EC90E0F5
:102CE0009787868780EC90E0918B808B81EC90E0D9
:102CF000938B828B82EC90E0958B848B86EC90E0BA
:102D0000978B868B118E128E138E148EE5E8F4E06D
:102D10001382128224E530E03583248380E390E03F
:102D2000978386833187208793878287158A1586C4
:102D300014861786168681E0848B2FEF3FEF338B46
:102D4000228B318B208B868B178A118E108E81E21D
:102D500093E09183808387E0828F86E0838F88E091
:102D6000848F8AE0858F89E0868FE9E7F4E08CE044
:102D700090E09183808384E090E0958384838BE06E
:102D800090E09383828385E090E09783868388E256
:102D90009BE6AEEEBCE480879187A287B3876FE5A0
:102DA00073E083E794E00E94230B6FE573E08DE608
:102DB00094E00E94230B6FE573E087E694E00E94A5
:102DC000230B6FE573E081E694E00C94230B6627F8
:102DD00077270C9427172532310520F4223010F084
:102DE0000C94F616FA011082CA010895BB272A3006
:102DF00051F4992342F4BDE29095809570956195C8
:102E00007F4F8F4F9F4F0C940617BB27FA01A62FB9
:102E10006217710581059105330B30FB66F0AA2717
:102E2000660F771F881F991FAA1FA21710F0A21BF9
:102E300063953850A9F7A05DAA3308F0A95DA19366
:102E400036F7B111B1931082CA010C94A518A0E015
:102E5000B0E0EDE2F7E10C94EB19EC017B016115B8
:102E6000710519F0DB018D939C938E010F5F1F4F4D
:102E70007880872D90E00E948418892B11F0E8015A
:102E8000F4CFBDE27B1205C00F5F1F4F7980C1E018
:102E900008C0EBE27E1204C08E010E5F1F4F7980E6
:102EA000C0E06801F1E0CF1AD10843E050E060E7EC
:102EB00070E0C6010E948D18892BF1F4680122E0B0
:102EC000C20ED11C45E050E06BE670E0C6010E94E6
:102ED0008D18892B21F4680187E0C80ED11CE114FC
:102EE000F10419F0D701CD92DC92C111FFC060E06E
:102EF00070E080E89FE703C143E050E068E670E0DF
:102F0000C6010E948D18892B51F4E114F10409F4D3
:102F1000F2C00E5F1F4FF70111830083ECC0680100
:102F200060E070E0CB0100E010E0F601D0EDD70DDD
:102F3000DA3058F52C2F2260622E2C2F2870C2FF19
:102F400005C0211128C00F5F1F4F25C0222311F09B
:102F500001501109A5E0B0E09B01AC010E94DC1911
:102F60004B015C01880C991CAA1CBB1CC501B40157
:102F70006D0F711D811D911D6839A9E97A078A07B6
:102F8000A9E19A0740F0C66005C0DE3F51F4C3FDD9
:102F900044C0C8606C2EBFEFCB1ADB0A7080C62D10
:102FA000C4CF2D2F2F7D2531C1F540814D3211F435
:102FB000C06106C04B3221F0319621E030E006C0FE
:102FC0003296D60111964C9122E030E0A0EDA40F8C
:102FD000AA3018F0E21BF30B20C040E050E040386C
:102FE000BCE05B075CF49A01220F331F220F331FF2
:102FF000420F531F440F551F4A0F511D3196DF01D9
:1030000011972C91A0EDA20FAA3048F3C4FF03C082
:10301000519541955109040F151FC1FF07C0E114D7
:10302000F10421F03197D701ED93FC930E94BA1877
:10303000C370C33019F06B017C0106C06B017C01C9
:10304000F7FAF094F7F8F09420E030E0A901C70116
:10305000B6010E94B518882309F445C017FF06C0C1
:10306000119501951109C7E8D0E002C0CFE9D0E081
:103070005E01B8E1AB1AB1084601BE2DAF2D90E25A
:10308000E92EF12C0E151F0584F0FE0125913591D6
:1030900045915491B4018B2F9A2F0E941B194B011B
:1030A000B82FA92F0E191F09EDCF2497F594E79497
:1030B000CA15DB0539F76401EB2EFA2E8E2D880F29
:1030C0008F2D881F8F3F49F020E030E0A901C70114
:1030D000B6010E94B518811106C082E290E090937B
:1030E000AB048093AA04C701B60109C060E070E098
:1030F00080E89FEF04C060E070E080EC9FE7CDB710
:10310000DEB7EEE00C94071A91110C948819803206
:1031100019F089508550C8F70895FB01DC01415032
:10312000504088F08D9181341CF08B350CF4805E1A
:10313000659161341CF06B350CF4605E861B611187
:1031400071F3990B0895881BFCCFDC01FC01672FFC
:1031500071917723E1F7329704C07C916D9370836E
:103160006291AE17BF07C8F308950E94F71808F4DC
:1031700081E00895E89409C097FB3EF4909580950E
:10318000709561957F4F8F4F9F4F9923A9F0F92F2D
:1031900096E9BB279395F695879577956795B795AB
:1031A000F111F8CFFAF4BB0F11F460FF1BC06F5F91
:1031B0007F4F8F4F9F4F16C0882311F096E911C0A3
:1031C000772321F09EE8872F762F05C0662371F0C4
:1031D00096E8862F70E060E02AF09A95660F771FD8
:1031E000881FDAF7880F9695879597F90895990FB4
:1031F0000008550FAA0BE0E8FEEF16161706E807C1
:10320000F907C0F012161306E407F50798F0621BE1
:10321000730B840B950B39F40A2661F0232B242BB6
:10322000252B21F408950A2609F4A140A6958FEFD5
:10323000811D811D08950E942E190C94A2190E94CF
:10324000941938F00E949B1920F0952311F00C94EA
:103250008B190C94911911240C94D6190E94B3194E
:1032600070F3959FC1F3950F50E0551F629FF001D9
:10327000729FBB27F00DB11D639FAA27F00DB11DF2
:10328000AA1F649F6627B00DA11D661F829F22277B
:10329000B00DA11D621F739FB00DA11D621F839F02
:1032A000A00D611D221F749F3327A00D611D231FD8
:1032B000849F600D211D822F762F6A2F11249F5726
:1032C00050409AF0F1F088234AF0EE0FFF1FBB1F29
:1032D000661F771F881F91505040A9F79E3F5105E8
:1032E00080F00C948B190C94D6195F3FE4F3983E50
:1032F000D4F3869577956795B795F795E7959F5F92
:10330000C1F7FE2B880F911D9695879597F9089523
:1033100099278827089597F99F6780E870E060E013
:1033200008959FEF80EC089500240A94161617065E
:1033300018060906089500240A94121613061406A6
:1033400005060895092E0394000C11F4882352F009
:10335000BB0F40F4BF2B11F460FF04C06F5F7F4FC1
:103360008F4F9F4F089557FD9058440F551F59F0A8
:103370005F3F71F04795880F97FB991F61F09F3F62
:1033800079F087950895121613061406551FF2CF8B
:103390004695F1DF08C0161617061806991FF1CFDB
:1033A00086957105610508940895E894BB27662702
:1033B0007727CB0197F908950E941E1AA59F900DBB
:1033C000B49F900DA49F800D911D112408952F92FC
:1033D0003F924F925F926F927F928F929F92AF92A5
:1033E000BF92CF92DF92EF92FF920F931F93CF93F2
:1033F000DF93CDB7DEB7CA1BDB0B0FB6F894DEBF89
:103400000FBECDBF09942A88398848885F846E84AE
:103410007D848C849B84AA84B984C884DF80EE80F8
:10342000FD800C811B81AA81B981CE0FD11D0FB601
:10343000F894DEBF0FBECDBFED010895A29FB0018D
:10344000B39FC001A39F700D811D1124911DB29FD8
:10345000700D811D1124911D08955058BB27AA2776
:103460000E94451A0C94A2190E94941938F00E94E7
:103470009B1920F039F49F3F19F426F40C9491190C
:103480000EF4E095E7FB0C948B19E92F0E94B31919
:1034900058F3BA17620773078407950720F079F489
:1034A000A6F50C94D5190EF4E0950B2EBA2FA02D8D
:1034B0000B01B90190010C01CA01A0011124FF27E1
:1034C000591B99F0593F50F4503E68F11A16F040DC
:1034D000A22F232F342F4427585FF3CF46953795DB
:1034E0002795A795F0405395C9F77EF41F16BA0BA0
:1034F000620B730B840BBAF09150A1F0FF0FBB1F4E
:10350000661F771F881FC2F70EC0BA0F621F731F96
:10351000841F48F4879577956795B795F7959E3FF3
:1035200008F0B0CF9395880F08F09927EE0F979584
:10353000879508950E94AE1A0C94A2190E949B19B7
:1035400058F00E94941940F029F45F3F29F00C9440
:103550008B1951110C94D6190C9491190E94B3191E
:1035600068F39923B1F3552391F3951B550BBB27B2
:10357000AA2762177307840738F09F5F5F4F220FF7
:10358000331F441FAA1FA9F335D00E2E3AF0E0E8EE
:1035900032D091505040E695001CCAF72BD0FE2F38
:1035A00029D0660F771F881FBB1F261737074807CC
:1035B000AB07B0E809F0BB0B802DBF01FF27935884
:1035C0005F4F3AF09E3F510578F00C948B190C94A4
:1035D000D6195F3FE4F3983ED4F3869577956795C7
:1035E000B795F7959F5FC9F7880F911D96958795B9
:1035F00097F90895E1E0660F771F881FBB1F6217D8
:1036000073078407BA0720F0621B730B840BBA0B95
:10361000EE1F88F7E09508950E94131B6894B1117E
:103620000C94D61908950E94BB1988F09F5798F002
:10363000B92F9927B751B0F0E1F0660F771F881FB7
:10364000991F1AF0BA95C9F714C0B13091F00E94D1
:10365000D519B1E008950C94D519672F782F8827D4
:10366000B85F39F0B93FCCF3869577956795B395F8
:10367000D9F73EF490958095709561957F4F8F4F67
:103680009F4F08950E94F71808F48FEF08950E9445
:10369000F718880B990B0895A1E21A2EAA1BBB1BE1
:1036A000FD010DC0AA1FBB1FEE1FFF1FA217B3070E
:1036B000E407F50720F0A21BB30BE40BF50B661F24
:1036C000771F881F991F1A9469F7609570958095E8
:1036D00090959B01AC01BD01CF010895052E97FB8C
:1036E0001EF400940E94851B57FD07D00E944C1BBE
:1036F00007FC03D04EF40C94851B509540953095F3
:1037000021953F4F4F4F5F4F08959095809570954D
:1037100061957F4F8F4F9F4F0895EE0FFF1F0590CC
:10372000F491E02D0994CF93DF938230910510F44A
:1037300082E090E0E091AE04F091AF0420E030E050
:10374000C0E0D0E0309711F140815181481759070E
:10375000C0F04817590761F482819381209719F0CE
:103760009B838A832BC09093AF048093AE0426C0C2
:103770002115310519F04217530718F49A01BE01BB
:10378000DF01EF010280F381E02DDCCF211531054F
:1037900009F1281B390B2430310590F412968D91D4
:1037A0009C9113976115710521F0FB01938382832E
:1037B00004C09093AF048093AE04FD01329644C0E0
:1037C000FD01E20FF31F81939193225031092D9354
:1037D0003C933AC02091AC043091AD04232B41F4CA
:1037E00020910703309108033093AD042093AC047B
:1037F00020910503309106032115310541F42DB7C1
:103800003EB74091090350910A03241B350BE09108
:10381000AC04F091AD04E217F307A0F42E1B3F0BAC
:103820002817390778F0AC014E5F5F4F2417350732
:1038300048F04E0F5F1F5093AD044093AC0481934A
:10384000919302C0E0E0F0E0CF01DF91CF910895C5
:103850000F931F93CF93DF93009709F48CC0FC0163
:103860003297138212820091AE041091AF040115B9
:10387000110581F420813181820F931F2091AC04C6
:103880003091AD042817390779F5F093AD04E09332
:10389000AC0471C0D80140E050E0AE17BF0750F44F
:1038A00012962D913C911397AD012115310509F127
:1038B000D901F3CF9D01DA013383228360817181C5
:1038C000860F971F8217930769F4EC0128813981CD
:1038D000260F371F2E5F3F4F318320838A819B81C4
:1038E00093838283452B29F4F093AF04E093AE04D5
:1038F00042C01396FC93EE931297ED0149915991B2
:103900009E01240F351FE217F30771F48081918126
:10391000840F951F029611969C938E9382819381BA
:1039200013969C938E931297E0E0F0E0D8011296E4
:103930008D919C911397009719F0F8018C01F6CFA7
:103940008D919C9198012E5F3F4F820F931F209184
:10395000AC043091AD042817390769F4309729F485
:103960001092AF041092AE0402C013821282109320
:10397000AD040093AC04DF91CF911F910F91089596
:10398000A0E0B0E0E6ECFCE10C94EB19EC01009750
:1039900021F4CB010E94931BB8C0FC01E60FF71F76
:1039A0009C0122503109E217F30708F4ACC0D90199
:1039B0000D911C91119706171707B0F005301105EE
:1039C00008F49FC0C80104978617970708F499C0A8
:1039D00002501109061B170B019311936D937C93F1
:1039E000CF010E94281C8DC05B01A01AB10A4C01B6
:1039F000800E911EA091AE04B091AF0440E050E063
:103A0000E12CF12C109709F44AC0A815B905D1F59D
:103A10006D907C901197630182E0C80ED11CCA148E
:103A2000DB0480F1A3014A195B096A0182E0C80E38
:103A3000D11C1296BC9012971396AC91B5E0CB16A0
:103A4000D10440F0B282A38351834083D9016D93A6
:103A50007C930AC00E5F1F4FC301800F911FF901B5
:103A600091838083EB2DFA2FE114F10431F0D7011B
:103A70001396FC93EE93129744C0F093AF04E09337
:103A8000AE043FC08D919C9111974817590708F4D7
:103A9000AC017D0112960D90BC91A02DB3CF809109
:103AA000AC049091AD0488159905E1F446175707C9
:103AB000C8F48091050390910603009741F48DB7F7
:103AC0009EB74091090350910A03841B950BE81798
:103AD000F907C8F4F093AD04E093AC04F9017183E5
:103AE00060830FC0CB010E94931B7C01009759F0AB
:103AF000A801BE010E948F1DCE010E94281CC70193
:103B000004C0CE0102C080E090E0CDB7DEB7EEE0A9
:103B10000C94071A81E090E0F8940C94AD1DFB0121
:103B2000DC0102C001900D9241505040D8F7089539
:103B3000FB01DC0101900D920020E1F70895FB01EB
:103B4000DC014150504030F08D910190801919F402
:103B50000020B9F7881B990B089513E0C0E0D3E06B
:103B600004C0FE010E948D1B2196C130D107C9F708
:043B7000F894FFCFF7
:103B7400017804780401000000C00E160200000061
:103B84000000000000000000000000000000000031
:103B94000000000000000000000000000000000021
:103BA400000000C0E0F0F8FCFCFEFFFCE0000000B8
:103BB4000000000000000000000000000000000001
:103BC40000000000000000000000000000000000F1
:103BD40000000000000000000000000000000000E1
:103BE4000000F8F8F8F8F8F8F8F8F8F8F8F8F0F051
:103BF400E0E0C080C0FCFFFFFFFF7F3F7FFFFFFFCF
:103C0400FFFF0000000000000000000000000000B2
:103C140000000000000000000000000000000000A0
:103C24000000000000000000000000000000000090
:103C3400000000000000000F1F3F7FFFFFFFFFFF99
:103C4400FFFFFFE7C7C7878F9F9FFFFFFFC1C0E04C
:103C5400FCFFFFFFFFFFFCFCFCFCFEFEFEFCFCF88F
:103C6400F8F0E0C0C0000000000000000000000008
:103C74000000000000000000000000000000000040
:103C8400000000000000000000000000000080C0F0
:103C9400E0F1FBFFFFFFFFFF7F1F0F0F87E7FFFF31
:103CA400FF1F1F3FF9F8F8F8F8F8F8FDFFFFFFFFD2
:103CB400FFFFFFFFFF7F3F0F070100000000000030
:103CC40000000000000000000000000000000000F0
:103CD40000000000000000000000000000000000E0
:103CE400F0FEFFFFFFFFFFFFFFFFFFFFFE7E3F3FF2
:103CF4000F1FFFFFFFFCF0E0F1FFFFFFFFFFFCF0F1
:103D040001010101010101010000000000000000A7
:103D1400000000000000000000000000000000009F
:103D2400000000000000000000000000000000008F
:103D34000000000003030303030303030101010163
:103D440000000000000000030F1F3F7F7FFFFFFF04
:103D5400FF7F7F1F03000000000000000000000040
:103D6400000000000000000000000000000000004F
:103D740000000000000000B004800000000000BF4C
:103D8400032C0357030604880366037A0300000028
:103D94000011072C03900A8F0A7904E409DD09B5A0
:103DA40009D109C509E509B409E604E5046F092B3D
:103DB40009DB08BD084608E7076E616E00696E6698
:103DC400006F76660030300047455420000D0A002D
:0A3DD400494E3A20005600487A00DC
:107800000C94343C0C94513C0C94513C0C94513CE1
:107810000C94513C0C94513C0C94513C0C94513CB4
:107820000C94513C0C94513C0C94513C0C94513CA4
:107830000C94513C0C94513C0C94513C0C94513C94
:107840000C94513C0C94513C0C94513C0C94513C84
:107850000C94513C0C94513C0C94513C0C94513C74
:107860000C94513C0C94513C11241FBECFEFD8E036
:10787000DEBFCDBF11E0A0E0B1E0ECE9FFE702C060
:1078800005900D92A230B107D9F712E0A2E0B1E065
:1078900001C01D92AD30B107E1F70E942D3D0C945F
:1078A000CC3F0C94003C982F959595959595959582
:1078B000905D8F708A307CF0282F295A8091C0000B
:1078C00085FFFCCF9093C6008091C00085FFFCCF60
:1078D0002093C6000895282F205DF0CF982F809127
:1078E000C00085FFFCCF9093C6000895EF92FF92F1
:1078F0000F931F93EE24FF2487018091C00087FD22
:1079000017C00894E11CF11C011D111D81E4E8164B
:1079100082E4F8068FE0080780E0180770F3E09132
:107920000401F091050109958091C00087FFE9CF1E
:107930008091C6001F910F91FF90EF9008950E94D3
:10794000763C982F8091C00085FFFCCF9093C600B5
:1079500091362CF490330CF09053892F089597555D
:10796000892F08951F930E949F3C182F0E949F3CCF
:107970001295107F810F1F9108951F93182F882350
:1079800021F00E94763C1150E1F71F9108951F935A
:10799000182F0E94763C803249F0809103018F5F5E
:1079A000809303018530C1F01F9108958091C0003C
:1079B00085FFFCCF84E18093C6008091C00085FFE5
:1079C000FCCF1093C6008091C00085FFFCCF80E102
:1079D0008093C6001F910895E0910401F091050184
:1079E00009951F9108950E94763C803241F0809164
:1079F00003018F5F80930301853081F008958091AA
:107A0000C00085FFFCCF84E18093C6008091C00058
:107A100085FFFCCF80E18093C6000895E0910401CA
:107A2000F09105010995089540E951E08823A1F0FE
:107A30002D9A28EE33E0FA013197F1F721503040CA
:107A4000D1F72D9828EE33E0FA013197F1F7215064
:107A50003040D1F7815061F708953F924F925F9285
:107A60006F927F928F929F92AF92BF92CF92DF924E
:107A7000EF92FF920F931F93CF93DF93000080E16B
:107A80008093C4001092C50088E18093C10086E015
:107A90008093C2005098589A259A81E00E94143D24
:107AA00024E1F22E9EE1E92E85E9D82E0FE0C02ECA
:107AB00010E1B12EAA24A394B1E49B2EA6E58A2E50
:107AC000F2E57F2EE0E26E2E79E4572E63E5462E36
:107AD00050E5352E0E94763C8033B1F18133B9F107
:107AE000803409F46FC0813409F476C0823409F41B
:107AF00085C0853409F488C0803531F1823521F1A3
:107B0000813511F1853509F485C0863509F48DC0BC
:107B1000843609F496C0843709F403C1853709F423
:107B200072C1863709F466C0809103018F5F80932C
:107B30000301853079F6E0910401F0910501099582
:107B40000E94763C803351F60E94F33CC3CF0E94E2
:107B5000763C803249F78091C00085FFFCCFF092DF
:107B6000C6008091C00085FFFCCF9092C600809136
:107B7000C00085FFFCCF8092C6008091C00085FFC9
:107B8000FCCF7092C6008091C00085FFFCCF609250
:107B9000C6008091C00085FFFCCF5092C600809146
:107BA000C00085FFFCCF4092C6008091C00085FFD9
:107BB000FCCF3092C6008091C00085FFFCCFB09210
:107BC000C60088CF0E94763C863808F4BDCF0E945C
:107BD000763C0E94F33C7ECF0E94763C803809F4CC
:107BE0009CC0813809F40BC1823809F43CC1883942
:107BF00009F48FC080E00E94C73C6CCF84E10E94F2
:107C0000BD3C0E94F33C66CF85E00E94BD3C0E94D3
:107C1000F33C60CF0E94763C809306010E94763C44
:107C2000809307010E94F33C55CF0E94763C80333D
:107C300009F41DC183E00E94BD3C80E00E94C73C66
:107C400049CF0E94763C809309020E94763C809343
:107C5000080280910C028E7F80930C020E94763C79
:107C6000853409F415C18091080290910902892B8D
:107C700089F000E010E00E94763CF801E85FFE4FDA
:107C800080830F5F1F4F80910802909109020817AF
:107C9000190788F30E94763C803209F045CF809125
:107CA0000C0280FF01C16091060170910701660F0F
:107CB000771F7093070160930601A0910802B091AD
:107CC00009021097C9F0E8E0F1E09B01AD014E0F09
:107CD0005F1FF999FECF32BD21BD819180BDFA9A17
:107CE000F99A2F5F3F4FE417F50799F76A0F7B1F4B
:107CF00070930701609306018091C00085FFFCCF5F
:107D0000F092C6008091C00085FFFCCFB092C60003
:107D1000E1CE83E00E94C73CDDCE82E00E94C73CFA
:107D2000D9CE0E94763C809309020E94763C8093D3
:107D300008028091060190910701880F991F909386
:107D40000701809306010E94763C853409F4A6C0A1
:107D500080910C028E7F80930C020E94763C8032D0
:107D600009F0B8CE8091C00085FFFCCFF092C6002C
:107D7000609108027091090261157105B9F140E046
:107D800050E080910C02A82FA170B82FB27011C0E2
:107D9000BB2309F45CC0E0910601F0910701319624
:107DA000F0930701E09306014F5F5F4F46175707B7
:107DB000E8F4AA2369F3F999FECF209106013091E6
:107DC000070132BD21BDF89A90B58091C00085FFB2
:107DD000FCCF9093C6002F5F3F4F30930701209355
:107DE00006014F5F5F4F4617570718F38091C00099
:107DF00085FDE5CE8091C00085FFF8CFE0CE81E023
:107E00000E94C73C67CE0E94763C803209F08CCE3F
:107E10008091C00085FFFCCFF092C6008091C00029
:107E200085FFFCCFE092C6008091C00085FFFCCFAB
:107E3000D092C6008091C00085FFFCCFC092C600E2
:107E40008091C00085FFFCCFB092C60043CEE09188
:107E50000601F091070194918091C00085FFFCCF4D
:107E60009093C6009CCF80E10E94C73C33CE0E9415
:107E7000763C0E94763C182F0E94763C112309F430
:107E800083C0113009F484C08FE00E94C73C22CE29
:107E900080910C02816080930C02E5CE80910C02EF
:107EA000816080930C0259CF809107018823880F4D
:107EB000880B8A2180930B02809106019091070123
:107EC000880F991F90930701809306018091080203
:107ED00080FF09C080910802909109020196909359
:107EE000090280930802F894F999FECF1127E091D6
:107EF0000601F0910701C8E0D1E08091080290915D
:107F00000902103091F40091570001700130D9F34B
:107F100003E000935700E89500915700017001308D
:107F2000D9F301E100935700E89509901990009169
:107F3000570001700130D9F301E000935700E89534
:107F40001395103498F011270091570001700130FB
:107F5000D9F305E000935700E895009157000170B0
:107F60000130D9F301E100935700E895329602976A
:107F700009F0C7CF103011F00296E5CF112480919F
:107F8000C00085FFB9CEBCCE8EE10E94C73CA2CD19
:0C7F900085E90E94C73C9ECDF894FFCF0D
:027F9C00800063
:040000030000780081
:00000001FF
